{
  "contractName": "MobileID",
  "abi": [
    {
      "constant": true,
      "inputs": [
        {
          "name": "",
          "type": "address"
        }
      ],
      "name": "join",
      "outputs": [
        {
          "name": "",
          "type": "bool"
        }
      ],
      "payable": false,
      "stateMutability": "view",
      "type": "function"
    },
    {
      "constant": true,
      "inputs": [],
      "name": "owner",
      "outputs": [
        {
          "name": "",
          "type": "address"
        }
      ],
      "payable": false,
      "stateMutability": "view",
      "type": "function"
    },
    {
      "constant": true,
      "inputs": [
        {
          "name": "",
          "type": "address"
        }
      ],
      "name": "hosts",
      "outputs": [
        {
          "name": "name",
          "type": "string"
        },
        {
          "name": "id_number",
          "type": "string"
        },
        {
          "name": "phone",
          "type": "string"
        }
      ],
      "payable": false,
      "stateMutability": "view",
      "type": "function"
    },
    {
      "inputs": [],
      "payable": false,
      "stateMutability": "nonpayable",
      "type": "constructor"
    },
    {
      "constant": false,
      "inputs": [
        {
          "name": "addr",
          "type": "address"
        },
        {
          "name": "name",
          "type": "string"
        },
        {
          "name": "id_number",
          "type": "string"
        },
        {
          "name": "phone",
          "type": "string"
        }
      ],
      "name": "setHost",
      "outputs": [],
      "payable": false,
      "stateMutability": "nonpayable",
      "type": "function"
    },
    {
      "constant": true,
      "inputs": [
        {
          "name": "addr",
          "type": "address"
        }
      ],
      "name": "getHost",
      "outputs": [
        {
          "name": "name",
          "type": "string"
        },
        {
          "name": "id_number",
          "type": "string"
        },
        {
          "name": "phone",
          "type": "string"
        }
      ],
      "payable": false,
      "stateMutability": "view",
      "type": "function"
    },
    {
      "constant": true,
      "inputs": [],
      "name": "getBalance",
      "outputs": [
        {
          "name": "",
          "type": "uint256"
        }
      ],
      "payable": false,
      "stateMutability": "view",
      "type": "function"
    },
    {
      "constant": false,
      "inputs": [],
      "name": "deposit",
      "outputs": [],
      "payable": true,
      "stateMutability": "payable",
      "type": "function"
    },
    {
      "constant": false,
      "inputs": [
        {
          "name": "_value",
          "type": "uint256"
        }
      ],
      "name": "transfer",
      "outputs": [
        {
          "name": "",
          "type": "bool"
        }
      ],
      "payable": false,
      "stateMutability": "nonpayable",
      "type": "function"
    }
  ],
  "bytecode": "0x608060405234801561001057600080fd5b5033600360006101000a81548173ffffffffffffffffffffffffffffffffffffffff021916908373ffffffffffffffffffffffffffffffffffffffff160217905550610d57806100616000396000f30060806040526004361061008e576000357c0100000000000000000000000000000000000000000000000000000000900463ffffffff16806306a8f2c01461009357806312065fe01461011e57806312514bba1461014957806328ffe6c81461018e5780638da5cb5b146101e9578063b9ced5fe14610240578063bcd8c9b0146103d4578063d0e30db014610568575b600080fd5b34801561009f57600080fd5b5061011c600480360381019080803573ffffffffffffffffffffffffffffffffffffffff169060200190929190803590602001908201803590602001919091929391929390803590602001908201803590602001919091929391929390803590602001908201803590602001919091929391929390505050610572565b005b34801561012a57600080fd5b506101336106c6565b6040518082815260200191505060405180910390f35b34801561015557600080fd5b50610174600480360381019080803590602001909291905050506106e5565b604051808215151515815260200191505060405180910390f35b34801561019a57600080fd5b506101cf600480360381019080803573ffffffffffffffffffffffffffffffffffffffff16906020019092919050505061074d565b604051808215151515815260200191505060405180910390f35b3480156101f557600080fd5b506101fe61076d565b604051808273ffffffffffffffffffffffffffffffffffffffff1673ffffffffffffffffffffffffffffffffffffffff16815260200191505060405180910390f35b34801561024c57600080fd5b50610281600480360381019080803573ffffffffffffffffffffffffffffffffffffffff169060200190929190505050610793565b60405180806020018060200180602001848103845287818151815260200191508051906020019080838360005b838110156102c95780820151818401526020810190506102ae565b50505050905090810190601f1680156102f65780820380516001836020036101000a031916815260200191505b50848103835286818151815260200191508051906020019080838360005b8381101561032f578082015181840152602081019050610314565b50505050905090810190601f16801561035c5780820380516001836020036101000a031916815260200191505b50848103825285818151815260200191508051906020019080838360005b8381101561039557808201518184015260208101905061037a565b50505050905090810190601f1680156103c25780820380516001836020036101000a031916815260200191505b50965050505050505060405180910390f35b3480156103e057600080fd5b50610415600480360381019080803573ffffffffffffffffffffffffffffffffffffffff169060200190929190505050610985565b60405180806020018060200180602001848103845287818151815260200191508051906020019080838360005b8381101561045d578082015181840152602081019050610442565b50505050905090810190601f16801561048a5780820380516001836020036101000a031916815260200191505b50848103835286818151815260200191508051906020019080838360005b838110156104c35780820151818401526020810190506104a8565b50505050905090810190601f1680156104f05780820380516001836020036101000a031916815260200191505b50848103825285818151815260200191508051906020019080838360005b8381101561052957808201518184015260208101905061050e565b50505050905090810190601f1680156105565780820380516001836020036101000a031916815260200191505b50965050505050505060405180910390f35b610570610c28565b005b60606040519081016040528087878080601f016020809104026020016040519081016040528093929190818152602001838380828437820191505050505050815260200185858080601f016020809104026020016040519081016040528093929190818152602001838380828437820191505050505050815260200183838080601f016020809104026020016040519081016040528093929190818152602001838380828437820191505050505050815250600160008973ffffffffffffffffffffffffffffffffffffffff1673ffffffffffffffffffffffffffffffffffffffff168152602001908152602001600020600082015181600001908051906020019061067f929190610c86565b50602082015181600101908051906020019061069c929190610c86565b5060408201518160020190805190602001906106b9929190610c86565b5090505050505050505050565b60003073ffffffffffffffffffffffffffffffffffffffff1631905090565b6000816106f06106c6565b101515156106fd57600080fd5b3373ffffffffffffffffffffffffffffffffffffffff166108fc839081150290604051600060405180830381858888f19350505050158015610743573d6000803e3d6000fd5b5060019050919050565b60006020528060005260406000206000915054906101000a900460ff1681565b600360009054906101000a900473ffffffffffffffffffffffffffffffffffffffff1681565b6001602052806000526040600020600091509050806000018054600181600116156101000203166002900480601f01602080910402602001604051908101604052809291908181526020018280546001816001161561010002031660029004801561083f5780601f106108145761010080835404028352916020019161083f565b820191906000526020600020905b81548152906001019060200180831161082257829003601f168201915b505050505090806001018054600181600116156101000203166002900480601f0160208091040260200160405190810160405280929190818152602001828054600181600116156101000203166002900480156108dd5780601f106108b2576101008083540402835291602001916108dd565b820191906000526020600020905b8154815290600101906020018083116108c057829003601f168201915b505050505090806002018054600181600116156101000203166002900480601f01602080910402602001604051908101604052809291908181526020018280546001816001161561010002031660029004801561097b5780601f106109505761010080835404028352916020019161097b565b820191906000526020600020905b81548152906001019060200180831161095e57829003601f168201915b5050505050905083565b6060806060600160008573ffffffffffffffffffffffffffffffffffffffff1673ffffffffffffffffffffffffffffffffffffffff1681526020019081526020016000206000018054600181600116156101000203166002900480601f016020809104026020016040519081016040528092919081815260200182805460018160011615610100020316600290048015610a605780601f10610a3557610100808354040283529160200191610a60565b820191906000526020600020905b815481529060010190602001808311610a4357829003601f168201915b50505050509250600160008573ffffffffffffffffffffffffffffffffffffffff1673ffffffffffffffffffffffffffffffffffffffff1681526020019081526020016000206001018054600181600116156101000203166002900480601f016020809104026020016040519081016040528092919081815260200182805460018160011615610100020316600290048015610b3d5780601f10610b1257610100808354040283529160200191610b3d565b820191906000526020600020905b815481529060010190602001808311610b2057829003601f168201915b50505050509150600160008573ffffffffffffffffffffffffffffffffffffffff1673ffffffffffffffffffffffffffffffffffffffff1681526020019081526020016000206002018054600181600116156101000203166002900480601f016020809104026020016040519081016040528092919081815260200182805460018160011615610100020316600290048015610c1a5780601f10610bef57610100808354040283529160200191610c1a565b820191906000526020600020905b815481529060010190602001808311610bfd57829003601f168201915b505050505090509193909250565b600360009054906101000a900473ffffffffffffffffffffffffffffffffffffffff1673ffffffffffffffffffffffffffffffffffffffff163373ffffffffffffffffffffffffffffffffffffffff16141515610c8457600080fd5b565b828054600181600116156101000203166002900490600052602060002090601f016020900481019282601f10610cc757805160ff1916838001178555610cf5565b82800160010185558215610cf5579182015b82811115610cf4578251825591602001919060010190610cd9565b5b509050610d029190610d06565b5090565b610d2891905b80821115610d24576000816000905550600101610d0c565b5090565b905600a165627a7a723058207a8874ef31159d01ca672c680542eba54ee9728f3ac5bd5f7354ae81334cc3f60029",
  "source": "pragma solidity ^0.4.24;\r\n\r\ncontract MobileID {\r\n    \r\n    // need to add\r\n    struct Host{\r\n        string name;\r\n        string id_number;\r\n        string phone;\r\n    }\r\n\r\n    struct Record{\r\n        address addr;\r\n    }\r\n\r\n    mapping(address => bool) public join;      // 굳이?\r\n    mapping(address => Host) public hosts;     // 개수 관리 필요함?\r\n    mapping(address => Record) records;         // 주소는 필요할수도? >> 기록 관리 어떻게 할지 한번 확인 //TODO\r\n    address public owner;\r\n\r\n    constructor() public {\r\n        owner = msg.sender;\r\n    }\r\n    \r\n    function setHost(address addr, string name, string id_number, string phone) external {\r\n        hosts[addr] = Host(name, id_number, phone);\r\n    }\r\n\r\n    function getHost(address addr) public view returns (string name, string id_number, string phone) {\r\n        name = hosts[addr].name;\r\n        id_number = hosts[addr].id_number;\r\n        phone = hosts[addr].phone;\r\n    }\r\n\r\n    function getBalance() public view returns (uint) {\r\n        return address(this).balance;\r\n    }\r\n\r\n    function deposit() public payable {  \r\n        require(msg.sender == owner);\r\n    }   \r\n  \r\n    function transfer(uint _value) public returns (bool) {\r\n        require(getBalance() >= _value);\r\n        msg.sender.transfer(_value);\r\n        return true;\r\n    }\r\n}\r\n",
  "sourcePath": "C:\\Users\\kwak0\\klaytn\\test\\test\\contracts\\MobileID.sol",
  "compiler": {
    "name": "solc",
    "version": "0.4.25+commit.59dbf8f1.Emscripten.clang"
  },
  "schemaVersion": "2.0.2",
  "updatedAt": "2020-08-13T14:33:40.015Z"
}